:100000000C942A000C943C000C943C000C943C0092
:100010000C943C000C943C000C943C000C943C0070
:100020000C943C000C943C000C943C000C943C0060
:100030000C943C000C943C000C943C000C943C0050
:100040000C943C000C943C000C943C000C943C0040
:100050000C943C0011241FBECFE5D4E0DEBFCDBF21
:1000600020E0A0E6B0E001C01D92A536B207E1F79E
:100070000E945A010C9492010C94000088BBA8982D
:10008000A998AA9A87E893E10197F1F700C00000C8
:10009000AA9887E893E10197F1F700C0000008955E
:1000A0008A3021F480EC0E943E00089588BBA89A13
:1000B000A998AA9A87E893E10197F1F700C0000098
:1000C000AA9887E893E10197F1F700C0000008952E
:1000D000982F907F98BBA898A998AA9AE7E8F3E18F
:1000E0003197F1F700C00000AA98E7E8F3E13197F3
:1000F000F1F700C00000F0E18F9FC001112488BB20
:10010000A898A998AA9A87E893E10197F1F700C007
:100110000000AA98E7E8F3E13197F1F700C000008A
:100120000895CF93C62F843081F482E00E94680046
:1001300088E20E9468008C2F0E94680081E00E9483
:100140003E0084E0809364000CC088E30E943E007F
:100150008C2F0E943E0081E00E943E0088E0809348
:100160006400CF910895929A9398949A95980895DF
:1001700092989398949895980895EF92FF920F9380
:100180001F93CF93DF9300D000D0CDB7DEB79C0193
:10019000EAE0F0E0BF010E946A018983CB01BF0160
:1001A0000E946A018A83C90164E670E00E946A01C4
:1001B000CB01BF010E946A018B83C90168EE73E025
:1001C0000E946A016C838E010C5F1F4FCE01019665
:1001D0007C01F80182918F01805D0E9450000E1514
:1001E0001F05B9F70F900F900F900F90DF91CF91EF
:1001F0001F910F91FF90EF90089581E487B984B12A
:1002000095B120916000309161002817390791F075
:1002100084B195B19093610080936000349BFECFD0
:1002200080916200909163008115924014F4AB9A22
:1002300001C0AB98369A0895CF93DF9382E487B9D3
:1002400080E80E943E0084B195B120916200309117
:1002500063002817390751F124B135B13093630099
:1002600020936200349BFECFC9016AE370E00E94D4
:100270006A01EB01C90199230CF4019695958795C4
:100280008C1B9D0B0E94BD008091620090916300C9
:1002900099230CF40196959587958C1B9D0B80975F
:1002A0001CF00E94B30002C00E94B800369ADF9191
:1002B000CF9108958FEF81BB84BB87BB6EE088E050
:1002C0000E94910083EC86B90E94FD00349A0E943E
:1002D0001C01FACF97FB072E16F4009407D077FD88
:1002E00009D00E947E0107FC05D03EF490958195CF
:1002F0009F4F0895709561957F4F0895AA1BBB1B72
:1003000051E107C0AA1FBB1FA617B70710F0A61B15
:10031000B70B881F991F5A95A9F780959095BC0136
:08032000CD010895F894FFCF10
:00000001FF
